S01500005461686F6D6574657220322E302E73726563B6
S113000012C0E0C12BC02AC081C228C027C026C0AC
S113001066C2D9C023C022C021C020C01FC01EC0D8
S11300201DC01CC01BC011241FBECFE5D4E0DEBF21
S1130030CDBF10E0A0E6B0E0E2E9FAE002C005902E
S11300400D92A437B107D9F720E0A4E7B0E001C0CE
S11300501D92A639B207E1F7E0D219C5D1CF81B319
S1130060877F81BB82B3886082BB81B38F7E81BB73
S113007082B3806182BB089520E030E021C0482F24
S113008050E0022E02C0559547950A94E2F740FFCE
S113009004C098B3916098BB03C098B39E7F98BB8B
S11300A098B3926098BB93E09A95F1F7000098B3E7
S11300B09D7F98BB93E09A95F1F700002F5F3F4F27
S11300C028303105E4F20895FC019C01369527950A
S11300D03695279536952795A5ECB0E2CCD4929524
S11300E082958F7089279F70892790937F008093D2
S11300F07E009F013695279536952795ABE7B4E1A9
S1130100BAD4AC01569547959A01ADECBCECB3D486
S11301109695879596958795969587959C01220F38
S1130120331F880F991F880F991F880F991F820FFB
S1130130931F9A01281B390B30937D0020937C0078
S11301409F0199D4AC015695479556954795569578
S113015047959A0190D49695879596958795969507
S113016087959C01220F331F880F991F880F991FB1
S1130170880F991F820F931F9A01281B390B309304
S11301807B0020937A00CA01880F991F440F551FE2
S1130190440F551F440F551F480F591FE41BF50BFF
S11301A0F0937900E0937800089582B3806882BB6D
S11301B082B38F7B82BB089582B3806482BB82B397
S11301C08F7782BB08951F920F920FB60F9211245E
S11301D02F933F934F935F936F937F938F939F934B
S11301E0AF93BF93EF93FF9388B3877F88BB83E07C
S11301F08A95F1F7000088B3886088BB83E08A950C
S1130200F1F700008091740090917500019690932D
S1130210750080937400099734F081E090E0909326
S11302207500809374008091740090917500823001
S1130230910569F48EEF20DFE0917E00F0917F005C
S1130240EE0FFF1FE05AFF4F808116DF2EC084306F
S1130250910569F48DEF10DFE0917C00F0917D0051
S1130260EE0FFF1FE05AFF4F808106DF1EC086306D
S1130270910569F48BEF00DFE0917A00F0917B0047
S1130280EE0FFF1FE05AFF4F8081F6DE0EC0089785
S113029061F487EFF1DEE0917800F0917900EE0FE0
S11302A0FF1FE05AFF4F8081E7DE88B3846088BB7C
S11302B083E08A95F1F7000088B38B7F88BB83E0E5
S11302C08A95F1F70000FF91EF91BF91AF919F9153
S11302D08F917F916F915F914F913F912F910F90EB
S11302E00FBE0F901F90189587B38F6087BB88B39C
S11302F0887F88BB81B3806C81BB82B38F7382BBE0
S11303000895E199FECF9FBB8EBB6DBB8CB3846017
S11303108CBB8CB382608CBB0895E199FECF9FBBEC
S11303208EBB8CB381608CBB8DB308951F93CF9328
S1130330DF93EC01162F672FE4DF612FCE010196C6
S1130340E0DFDF91CF911F9108950F931F93CF9317
S1130350DF938C01E2DFC82FD0E0DC2FCC27C8016B
S11303600196DBDF9E01280F311DC901DF91CF917A
S11303701F910F91089583B7826083BF89B781600D
S113038089BF12BE08958EB581608EBD89B7846021
S113039089BF1DBC1CBC089585B7826085BF8BB71F
S11303A080648BBF089582B5886082BD14BC85B516
S11303B0856085BD89B7806489BF08958FB78068DB
S11303C08FBF08951F920F920FB60F921124CF92F0
S11303D0DF92EF92FF922F933F934F935F936F932C
S11303E07F938F939F93AF93BF93CF93DF93EF93B9
S11303F0FF932CB53DB58091940090919500A0E0B9
S1130400B0E0DC0199278827820F931FA11DB11D3D
S113041040919000509191006091920070919300EE
S1130420840F951FA61FB71F80939000909391008F
S1130430A0939200B09393001DBC1CBC1092950035
S11304401092940060918E0070918F00EB012196C0
S1130450D0938F00C0938E00C436D1054CF16091C7
S1130460900070919100809192009091930012D22B
S11304706B017C01BE01DD0F880B990B0DD29B0132
S1130480AC01C701B60172D160938A0070938B00EE
S113049080938C0090938D001092900010929100A4
S11304A0109292001092930010928F0010928E007E
S11304B0FF91EF91DF91CF91BF91AF919F918F9178
S11304C07F916F915F914F913F912F91FF90EF90AA
S11304D0DF90CF900F900FBE0F901F9018951F9232
S11304E00F920FB60F9211248F939F9380919400D3
S11304F090919500019690939500809394009F911C
S11305008F910F900FBE0F901F9018951F920F920E
S11305100FB60F9211242F933F934F935F936F93D2
S11305207F938F939F93AF93BF93EF93FF938091A8
S113053088009091890001969093890080938800A7
S1130540CC97B0F0109289001092880080918600B8
S11305509091870001969093870080938600609124
S11305608600709187008091800090918100C9DE9F
S11305708091860090918700CC9700F110928700BB
S1130580109286008091840090918500019690934A
S1130590850080938400609186007091870080912B
S11305A0800090918100ADDE60918400709185009F
S11305B080918000909181000196B8DE8091840042
S11305C09091850080319742B8F010928500109286
S11305D084006091860070918700809180009091E2
S11305E081008FDE6091840070918500809180008D
S11305F09091810001969ADEFF91EF91BF91AF91A6
S11306009F918F917F916F915F914F913F912F9126
S11306100F900FBE0F901F90189566DEACDEB3DE10
S1130620BBDEC1DECBDE1BDD8091820090918300B6
S11306308CDE90938100809380006FDE90E0909335
S113064087008093860080918000909181000196BC
S11306507CDE90938500809384008091800090914B
S11306608100019690938100809380008D3F21E06A
S1130670920740F0029730F482E090E0909381007A
S1130680809380006091800070918100809182004D
S1130690909183004BDE6091860070918700809179
S11306A08000909181002DDE60918400709185001E
S11306B08091800090918100019638DE80917600CF
S11306C0909177000097E1F020918A0030918B009F
S11306D040918C0050918D0060E074E284E799E4CD
S11306E045D020E030E040E752E462D120E030E041
S11306F040E05FE35DD1A2D0CB01E6DC56DD08C06B
S1130700892B31F48091840090918500DDDC54DDE7
S113071083990CC0839BFECF8091760090917700E3
S11307208095909590937700809376008499C6CFB6
S1130730849BFECF10928700109286001092850051
S113074010928400609186007091870080918000EF
S113075090918100D6DD6091840070918500809134
S11307608000909181000196E1DDA8CF0CD0E6C015
S1130770DED040F0D5D030F021F45F3F19F0C7C08F
S1130780511110C1CAC0EBD098F39923C9F3552372
S1130790B1F3951B550BBB27AA2762177307840770
S11307A038F09F5F5F4F220F331F441FAA1FA9F326
S11307B033D00E2E3AF0E0E830D091505040E69518
S11307C0001CCAF729D0FE2F27D0660F771F881F79
S11307D0BB1F261737074807AB07B0E809F0BB0B68
S11307E0802DBF01FF2793585F4F2AF09E3F51058C
S11307F068F08DC0D7C05F3FECF3983EDCF386957C
S113080077956795B795F7959F5FC9F7880F911D01
S11308109695879597F90895E1E0660F771F881FED
S1130820BB1F621773078407BA0720F0621B730BA0
S1130830840BBA0BEE1F88F7E095089598D088F0E2
S11308409F5790F0B92F9927B751A0F0D1F0660FB8
S1130850771F881F991F1AF0BA95C9F712C0B130D3
S113086081F09FD0B1E008959CC0672F782F88272E
S1130870B85F39F0B93FCCF3869577956795B39512
S1130880D9F73EF490958095709561957F4F8F4F81
S11308909F4F0895E89409C097FB3EF49095809586
S11308A0709561957F4F8F4F9F4F9923A9F0F92F32
S11308B096E9BB279395F695879577956795B795B0
S11308C0F111F8CFFAF4BB0F11F460FF1BC06F5F96
S11308D07F4F8F4F9F4F16C0882311F096E911C0A8
S11308E0772321F09EE8872F762F05C0662371F0C9
S11308F096E8862F70E060E02AF09A95660F771FDD
S1130900881FDAF7880F9695879597F9089597F9D0
S11309109F6780E870E060E008959FEF80EC0895A1
S113092000240A94161617061806090608950024CA
S11309300A9412161306140605060895092E039444
S1130940000C11F4882352F0BB0F40F4BF2B11F4B8
S113095060FF04C06F5F7F4F8F4F9F4F089557FD17
S11309609058440F551F59F05F3F71F04795880F19
S113097097FB991F61F09F3F79F0879508951216B0
S113098013061406551FF2CF4695F1DF08C016165C
S113099017061806991FF1CF86957105610508940D
S11309A00895E894BB2766277727CB0197F9089524
S11309B00BD0C4CFB5DF28F0BADF18F0952309F0C7
S11309C0A6CFABCF1124EECFCADFA0F3959FD1F30E
S11309D0950F50E0551F629FF001729FBB27F00DE9
S11309E0B11D639FAA27F00DB11DAA1F649F66273E
S11309F0B00DA11D661F829F2227B00DA11D621F8D
S1130A00739FB00DA11D621F839FA00D611D221F46
S1130A10749F3327A00D611D231F849F600D211D2A
S1130A20822F762F6A2F11249F5750408AF0E1F0CD
S1130A3088234AF0EE0FFF1FBB1F661F771F881F16
S1130A4091505040A9F79E3F510570F060CFAACF56
S1130A505F3FECF3983EDCF3869577956795B79501
S1130A60F795E7959F5FC1F7FE2B880F911D96952B
S1130A70879597F90895A29FB001B39FC001A39FE2
S1130A8001D0B29F700D811D1124911D0895F89419
S1050A90FFCF92
S1130A923F0006005B004F0066006D007D0007000A
S1070AA27F006F005E
S9030000FC
